:020000040000FA
:06000000020E0C0203EFEA
:03002B00020A8343
:030033000209734C
:03004300020AA905
:0300530002032481
:03006B0002094D3A
:10008300020383010105030101FF0F10FEFF382C5A
:10009300000000000C2B00000000FF000000FF0028
:1000A300010020FD000206FFFF7A81538156815C27
:1000B300815F81A180AB80A6806281688150816E5F
:1000C300816B81658101D007000060EA0000C0D424
:1000D300010020BF0200320000000A0000001400EB
:1000E30000002E2100000000000034210000000069
:1000F30000000000000001012400000000000000D7
:1001030000000000000000000000000000FF0110DC
:1001130020202020202020202020202020202020DC
:1001230001011400FFFFFF000A00010001000A00A3
:10013300080401510000065A800173810904010279
:1001430000000210810171810101010400831C0080
:100153000000E8030000FFFFFB1CE803000064004D
:100163006400B801A0BB0D00A0BB0D00020200F8A3
:10017300FF070502070401051E02051E020A0A0104
:1001830002080803B80B02803E0102FEFFE8030ADF
:10019300050001FFFF010A1401E0D0FFFFFF00C6C5
:1001A3001E00120E1C604F120E2B6012E754806665
:1001B300F6120CBD7011120ED1703B090909F4F649
:1001C30018F618F618F622120CD17015120EDA086A
:1001D300080860EAE6447FF618768018E4F618F615
:1001E30022120EDA6016120ED17012E4F608F60827
:1001F300F608E65480F609090918181822EAC0E03F
:10020300EBC0E0ECC0E0EDC0E0E687F0A4FBACF0AF
:1002130008E687F0A42CFCE435F0FA1809E687F029
:10022300A42C4B60027401CA35F0FCE433FB09E6ED
:1002330087F0D2F7A42CCB35F0FC1908E687F0A49D
:100243002BCC35F0FBE433FD0819E687F0D2E7A4A5
:100253002C4ACB35F0CD3400FC09E687F0D2E7A475
:100263002DCC35F0FDE433FA0918E687F0D2F7A474
:100273002CCD35F0CA3400FC08E687F0D2E7D2F77C
:10028300A42ACC35F07A7E20E70B0ACB33CBCD33CF
:10029300CDCC33CC33CB3350147004ED30E00ED2DD
:1002A300F1E4CD3DCDCC3CCC3B5005DA05C2F1EBBE
:1002B300547FC63308E63392F0FBE73309E733C3D1
:1002C3009A502D2B70190C0D4C4D70151806E6081D
:1002D300C333700D20F10AA2F013F6E418800B402B
:1002E30024E4F630F002768018F618F618F6802427
:1002F300D33B14501074FFA2F013F6187680E41861
:10030300F618F6800FA2F013F618E63303F618EC8E
:10031300F618EDF6D0E0FDD0E0FCD0E0FBD0E0FA3B
:1003230022C0E074F1120718A2AFE433F509D2AF8B
:1003330085A708AFA1EF5508FE74105E6006121B77
:10034300AC75A1EF74085E6008121BB275A1F7804B
:1003530024EFA2E092F0E508A2E082F0501790614A
:1003630098E0F89008ABE0C398A2D265D03350026E
:10037300E8F075A1FEE509A2E092AF7F02020777DC
:10038300C0E074F2120718A2AFE433FED2AF90615B
:10039300A4E0F8759B00E59158540860087591F73F
:1003A300121BFA8023E59158541060087591EF12DF
:1003B3001C008014E591A2E092F0E8A2E082F050E4
:1003C30007E0C2E0F0121D569061A3E0F8E5E9589A
:1003D3005404600E121D2C75E9FB906193E0A2E6B4
:1003E30040F2EEA2E092AF7F01020777C0E074F221
:1003F300120718A2AFE433FED2AF9061A5E0F8E58F
:10040300BF585404600675BFFB121D6E80D4C3E44D
:1004130098F8E499F91204528026C3E49AFAE49B0B
:10042300FBE920E7E9120452E498F8E499F922C3BE
:10043300E498F8E499F9120452E498F8E499F9C3BA
:10044300E49AFAE49BFB22EB20E7CFE920E7E0B94B
:100453000010BB0008E88AF084F8AAF022E4FBC885
:10046300FA22EB70227B10C833C8C933C933500753
:10047300C39AC3DBF280069A50012ADBEAC833F43D
:10048300C8C933F4C9FA2275F008E4C833C8C933BC
:10049300C933C99AC99B5004C92AC93BD5F0ECFB9F
:1004A300C833F4C8E4C9FA221204F630F03912054D
:1004B3003B80341204F620F01430E72B74FFFCFB6E
:1004C300FA747F8022E4FCFBFA7480801AB48008FB
:1004D300BC00F2BB00EF800F50EBF9E4C39AFAE4DF
:1004E3009BFBE49CFCE499C6CC18C6CB18C6CA187F
:1004F300C6F922E4C9C608CAC608CBC6D333030863
:10050300CCC63392F0C3947F402E94184019C9B9D6
:100513000704CACBCC225025C309CA33CACB33CB79
:10052300CC33CC33D9F422F4600DC9CCC313CB1331
:10053300CBCA13CAD9F6CC22E4FCFBFA2214FCFB87
:10054300FA22080808EAC0E0EBC0E086F0E7A4FA64
:10055300180986F0E7A42AFA180986F0E7A42AFA0C
:10056300180986F0E7A42AFA1986F0E7A4FBE5F058
:100573002AFA190886F0E7A42BFBE5F03AFA1908E2
:1005830086F0E7A42BFBE5F03AFA18180986F0E7A2
:10059300A4C5F02BFBE43AFA1908E7C5F0C6A42674
:1005A300F6E5F03BFBE43AFA1886F0E7A4F6E5F04B
:1005B3000826F6E43B08F6E43A08F6D0E0FBD0E080
:1005C300FA22080808E630E711120CE51205DD08E7
:1005D3000808C64480C618181822181818E9799E06
:1005E300C608CAC608CBC608CCC6C370207996CA4B
:1005F300CBCC7019798ECBCC70137986CC700EF975
:10060300802ACA33CACB33CBCC33CC331930E7F28D
:10061300CCCBCA3350147004EA30E00DE4CA3ACAB2
:10062300CB3BCBCC3CCC500209C3E913C6CC18233B
:1006330013C6CB18C6CA18C6F922E4CFC0E0E4CE6D
:10064300C0E0E4CDC0E0E4CCC0E075F020E626F6DF
:1006530008E633F608E633F608E633F6181818EC1E
:1006630033FCED33FDEE33FEEF33FFC3EC9709EDBF
:100673009709EE9709EF97191919400FFFEC97FCAB
:1006830009ED97FD09EE97FE191906D5F0BFECF7B2
:1006930009EDF709EEF709EFF7191919D0E0FCD0C6
:1006A300E0FDD0E0FED0E0FF222518C582C0E0E5E2
:1006B3001934FFC583C0E0E518C3958224F810AF51
:1006C300088583198582188008858319858218D245
:1006D300AFCEF0A3E520F0A37808E608F0A3DEFA96
:1006E300EFF0A3E58124FAF8E608F0A3E608F0A307
:1006F300E608F0A30808E608F0A3E608F0A31581CE
:100703001581D0E0FED0E0F8158115811581E8C090
:10071300E0EEC0E022C0D02518C582C0E0E5193460
:10072300FFC583C0E0E518C3958224F310AF0885A5
:1007330083198582188008858319858218D2AFC8EA
:10074300F0A3E9F0A3EAF0A3EBF0A37908E709F03B
:10075300A3D8FAECF0A3EDF0A3EEF0A3EFF0A3D04F
:10076300E0F0A3D0E0F0A3D0E0F0A3E520F0A3E510
:10077300F0F0A322851983851882E0C0E0A3E0F995
:10078300A3E0FAA3E0FBA37808E0F608A3DFFAE00E
:10079300FCA3E0FDA3E0FEA3E0FFA3E0C0E0A3E031
:1007A300C0E0A3E0F5D0A3E0F520A3E0A3F5F010AB
:1007B300AF08858319858218800885831985821877
:1007C300D2AFD082D083D0E0F8D0E032120EBCB9E1
:1007D300000302080EE490050178AB79198002F05A
:1007E300A3D8FCD9FA7AAB7B1D900086781F7902D7
:1007F3008015E493A3AD82AE838A828B83F0A3AA90
:1008030082AB838D828E83D8E9D9E77582E27583C3
:10081300A47405120B6C7582BE7583277400120BCA
:100823006C75F0108E1A8F1B85821F85831E8518A9
:1008330082851983E0CEA3E0CF851F82851E83EBDB
:10084300C9EAC8EDCBECCAC3E833C8E933C9EA3314
:10085300CAEB33CBC3EA9EF51DEB9FF51CB35004E3
:10086300AB1CAA1DEC33CCED33CDD5F0DAAE1AAF09
:100873001B22D083D082ECC0E0EDC0E0E493A3FC64
:10088300E493A3FDED4C600D120991EC24FFFCED04
:1008930034FFFD80EFE493A3FCE493A3FDED4C60F0
:1008A3000D120A2EEC24FFFCED34FFFD80EFD0E0A7
:1008B300FDD0E0FCE493A3C0E0E493C0E0228519FB
:1008C30083851882E0A3FEE0A3F5207808E0A3F671
:1008D30008DFFAE0A3FFE0A3C0E0E0A3C0E0E0A3E9
:1008E300C0E0E0A3C0E0E0A3C0E010AF0885821839
:1008F3008583198008858218858319D2AFD083D068
:1009030082020B72D083D082E9C0E0E493A3C38652
:10091300F0C5F095F0F908E493A386F0C5F095F0DF
:10092300700BE493A3C3994005E9048002A3E47523
:10093300F002A42582F582E5F03583F583D0E0F952
:10094300E493A3C0E0E493C0E022C0E074F2120792
:1009530018A2AFE433FED2AFE589A2E15003121A25
:100963009E758900C2C5EEA2E092AF7F01020777B0
:10097300C0E074F2120718A2AFE433FED2AFE58BE6
:10098300A2E05003121A9E758B00C2E880D8C0E023
:10099300C3E49396087401939618400FE49366702A
:1009A3000808740193661870007019A3A3C3E49335
:1009B30096087401939618A3A3400DD0E0D0E0D01D
:1009C300E00208B1A3A3A3A3A3A3D0E022740480ED
:1009D3000474028000CCC0E0EDC0E0E518C39CCCF9
:1009E300AD1950011D10AF068C188D1980068C1897
:1009F3008D19D2AF120AEED0E0FDD0E0FC227402D2
:100A03008000CCC0E0EDC0E0E518C39CCCAD19502C
:100A1300011D10AF068C188D1980068C188D19D204
:100A2300AF120ACCD0E0FDD0E0FC22C0E0C0F088D9
:100A3300F0E4936670080874019366187000A8F0D8
:100A4300A3A3700BD0F0D0E0D0E0D0E00208B1A3B4
:100A5300A3D0F0D0E022D083D082CCC0E0E493A333
:100A63006006120B2E1470FAE493A36006120C5462
:100A73001470FAD0E0FCE493A3C0E0E493C0E02256
:100A8300C0E0C0D0E8C0E0E9C0E0A9A8D2AFC2C7C7
:100A9300E9A2E7E433F8E9A2E792AFD0E0F9D0E0C6
:100AA300F8D0D0D0E032C0E074F2120718A2AFE45D
:100AB30033FED2AFC2C0E5D1A2E45003121B1CEE39
:100AC300A2E092AF7F01020777CAC0E0E493A3C517
:100AD30082CCC582C583CDC583F0A3C582CCC58234
:100AE300C583CDC583DAE5D0E0CA22CAC0E0E0A35E
:100AF300C582CCC582C583CDC583F0A3C582CCC5D1
:100B030082C583CDC583DAE6D0E0CA22700908081E
:100B130008226016181818C6C333C608C633C60899
:100B2300C633C608C633C6D5E0EA22C0E0E493A3C1
:100B3300D39C5010E493A3C39C400AD0E0D0E0D0F0
:100B4300E0020A76A3A3A3D0E022C008C3E096F58F
:100B53000808A3E096420808A3E096420808A3E029
:100B63009645087001D3D00822C09FF59FE473D047
:100B73009F22D083D082C09FE493C0E0740193C0CE
:100B8300E0740293F59F227404800A740380067450
:100B93000280027401C0E0F404120BC0D0E0120E14
:100BA300672200C0D0251810AF08F518500C05199E
:100BB3008008F51850020519D2AFD0D0222518F5B8
:100BC3008210AF08F518400C15198008F51840027B
:100BD3001519D2AF85198322BB0102E722C082C057
:100BE3008389828A83BB0003E08002E493D083D0AD
:100BF30082226016080808C6C313C618C613C6188F
:100C0300C613C618C613C6D5E0EA222518F8E4357C
:100C130019F9222518FAE43519FB222518FCE435C5
:100C230019FD22C3E0C696F608A3E0C696F608A30C
:100C3300E0C696F608A3E0C696F622251810AF087C
:100C4300F518400C15198008F51840021519D2AF94
:100C530022C0E0E493A36C7009D0E0D0E0D0E002BE
:100C63000A76A3A3D0E022E066701008A3E06670C2
:100C73000A08A3E066700408A3E06622E766701022
:100C83000809E766700A0809E76670040809E76659
:100C930022C3E09608A3E09608A3E09608A3E09693
:100CA300A2D265D03322C3E096F008A3E096F00801
:100CB300A3E096F008A3E096F022181818E6084679
:100CC300087009E626087005E633F422082219198C
:100CD30019E70947097009E727097005E733F42283
:100CE3000922181818E4C396F608E496F608E49661
:100CF300F608E496F622C3E49396087401939608E3
:100D030074029396087403939622C3E697F6080930
:100D1300E697F60809E697F60809E697F6227004BF
:100D230022600D18C6C333C608C633C6D5E0F4180F
:100D330022E026F608A3E036F608A3E036F608A379
:100D4300E036F622E657F60809E657F60809E657AD
:100D5300F60809E657F622E056F608A3E056F60829
:100D6300A3E056F608A3E056F622E056F008A3E007
:100D730056F008A3E056F008A3E056F022E627F663
:100D83000809E637F60809E637F60809E637F622D2
:100D9300E026F008A3E036F008A3E036F008A3E06D
:100DA30036F022E647F60809E647F60809E647F66D
:100DB3000809E647F622E493F608740193F60874EB
:100DC3000293F608740393F622600D08C6A2E71394
:100DD300C618C613C6D5E0F322C6F4C608C6F4C6C1
:100DE30008C6F4C608C6F4C622C3E7960809E79600
:100DF3000809E7960809E79622C3E09608A3E09658
:100E030008A3E09608A3E0962275D00075813F758C
:100E13001801751905000207CFE6084608C31346F3
:100E230008336002E633F422E7094709C31347098D
:100E3300336002E733F422600C08C6C313C618C636
:100E430013C6D5E0F422E6F008A3E6F008A3E6F023
:100E530008A3E6F022E0F608A3E0F608A3E0F6080C
:100E6300A3E0F622CAC0E0E6F0A308DAFAD0E0FA7B
:100E730022E0FCA3E0FDA3E0FEA3E0FF22EAF0A34F
:100E8300EBF0A3ECF0A3EDF022E0FAA3E0FBA3E088
:100E9300FCA3E0FD22E8F0A3E9F0A3EAF0A3EBF062
:100EA30022ECF0A3EDF0A3EEF0A3EFF022E0F8A321
:100EB300E0F9A3E0FAA3E0FB22E5C754F84401F507
:100EC300C77901222518F582E43519F58322E7272E
:100ED30019471947194722E6261846184618462285
:100EE300C2AF75D69F02000022120B757AA90212B7
:100EF3000B75E7A902120B75F2A902120B751AAA58
:100F030002120B7525AA02120B758AAA02120B751F
:100F130095AA02120B75B9AA02120B75DDAA021269
:100F23000B754FAB02120B7598AB02120B75B4AB7A
:100F330002120B7525AC02120B7571AC02120B7504
:100F4300BAAC02120B75F8AC02120B7579AD021232
:100F53000B7520AE02120B75EFAF02120B7554B076
:100F630002120B7582B102120B75A8B102120B7536
:100F7300F0B202120B752AB602120B7528B80212D0
:100F83000B75F3B902120B758CBA02120B758DBC7B
:100F930002120B7542BD02120B757BBD02120B755B
:100FA300E1BD02120B75EBBD02120B7514C00212E8
:100FB3000B7553C102120B75AAC102120B7555C2F0
:100FC30002120B7505C402120B7552C502120B7582
:100FD30072C502120B75C7C502120B75C8C6021281
:100FE3000B75F0C602120B754FC702120B7547C87B
:100FF30002120B75BEC802120B75D1C902120B7512
:101003003FCA02120B753ECB02120B7598CD02122A
:101013000B75C1CD02120B7527CF02120B75A9D028
:1010230002120B7500D102120B75AED102120B75B1
:1010330053D202120B75ACD202120B756AD3021291
:101043000B75FCD302120B755BD402120B759DD486
:1010530002120B75CED402120B7525D602120B7534
:10106300008003120B75328003120B756B80031221
:101073000B75298203120B75FF8203120B755E83B6
:1010830003120B75748403120B75C08403120B7562
:101093004E8703120B75288A03120B756F8B03128D
:1010A3000B75078C03120B75138C03120B755C8C79
:1010B30003120B759E8D03120B75948E03120B7521
:1010C300BE8E03120B75148F03120B756D8F0312F3
:1010D3000B75E08F03120B75169203120B75989321
:1010E30003120B75839403120B75CD9503120B75C5
:1010F300059803120B75029B03120B75119B0312C8
:101103000B75A59B03120B75509C03120B75939CD7
:1011130003120B75FB9C03120B75179D03120B75C2
:10112300469D03120B75859D03120B75809E03125A
:101133000B752F9F03120B75ACA103120B75DEA267
:1011430003120B75B6A303120B7538A403120B75A8
:101153006DA803120B759CA803120B75F7A8031255
:101163000B752AA903120B75A2A903120B75D5A936
:1011730003120B7536AA03120B7586AA03120B759D
:1011830053AB03120B750CAC03120B75D0AC0312EB
:101193000B754AAF03120B75ACB003120B75FDB19F
:1011A30003120B7521B303120B7524B303120B75D2
:1011B30053B303120B754BB503120B750AB6031227
:1011C3000B7539B603120B7557B703120B751FB89E
:1011D30003120B75DDB903120B750FBA03120B75EE
:1011E30051BA03120B7550BB03120B75C3BB031229
:1011F3000B75ECBD03120B754BBE03120B759FBE33
:1012030003120B75CEC003120B75B1C103120B751C
:101213006DC203120B7581C203120B7595C20312C3
:101223000B75C2C203120B75F2C203120B75ADC468
:1012330003120B75BFC503120B7514C603120B758E
:101243005DC603120B7584C603120B754CC70312DC
:101253000B75F2C703120B7578C903120B75BFC95F
:1012630003120B7531CA03120B7586CB03120B7570
:101273002FCC03120B7563CC03120B757BCC0312BB
:101283000B751ECD03120B759ACF03120B7542D14A
:1012930003120B7560D103120B757ED103120B750C
:1012A3004AD203120B7598D503120B757E81011276
:1012B3000B75B68101120B75B68601120B75FC8690
:1012C30001120B75328801120B75978801120B7589
:1012D3000C8A01120B75168D01120B753F8E0112CC
:1012E3000B75529801120B75E29801120B75CC9B8A
:1012F30001120B75D99C01120B753C9D01120B75E4
:10130300849E01120B75F2A001120B7584A20112C7
:101313000B7511A301120B7530A401120B75BDA43B
:1013230001120B75C7A401120B75EFA401120B7503
:101333008FA501120B757AA601120B7547A701122F
:101343000B7564A701120B758DA701120B75BAA754
:1013530001120B7501AA01120B75D0AA01120B75AC
:101363000FAB01120B7591AB01120B7532AC01126D
:101373000B7564AC01120B75ABAC01120B75DEACD3
:1013830001120B7522AD01120B7571AD01120B75B4
:1013930076AD01120B75D2AD01120B7516AE0112AB
:1013A3000B75F0AE01120B7555AF01120B75BBAF88
:1013B30001120B7536B001120B759EB301120B753A
:1013C300A1B401120B751FB601120B7535B90112C9
:1013D3000B75D7B901120B7520BC01120B75DBBC61
:1013E30001120B751ABD01120B75F2BE01120B75BA
:1013F3000FBF01120B7518BF01120B7521BF01122C
:101403000B752CBF01120B754BBF01120B75EFC08F
:1014130001120B754CC101120B7556C101120B75EC
:1014230060C101120B75BFC101120B7509C2011214
:101433000B750AC301120B7561C301120B7572C4DC
:1014430001120B75BBC401120B7575C501120B7527
:101453008CC601120B7561C701120B75A8C8011266
:101463000B75ACC901120B75A5CA01120B75BDCA68
:1014730001120B75F4CA01120B75FECA01120B752A
:1014830009CB01120B7527CB01120B756FCB011220
:101493000B75CDCB01120B75F4CB01120B7506CC7A
:1014A30001120B75BBCC01120B75F4CC01120B7539
:1014B30016CE01120B7569CE01120B754FCF0112B7
:1014C3000B7576CF01120B75E6CF01120B7562D047
:1014D30001120B75BED101120B75E5D201120B750A
:1014E300A7D301120B7575D401120B7533D50112F5
:1014F3000B751BD601120B75C5D601120B752DD7B3
:1015030001120B75E2D701120B753ED801120B7550
:1015130096D801120B755CD901120B757FD9011294
:101523000B753ADA01120B755CDA01120B75BDDA31
:1015330001120B75EDDC01120B75E6DD01120B7563
:1015430092DE01120B75B3E001120B75FCE0011280
:101553000B7547E101120B75A3E101120B7501E253
:1015630001120B7525E201120B7549E201120B758D
:101573007EE201120B75A6E201120B75EBE201127A
:101583000B753FE301120B7598E301120B7592E49F
:1015930001120B7530E601120B7575E601120B751E
:1015A3009EE601120B7527E701120B759AE70112EC
:1015B3000B75A8E701120B75CCE701120B7522E836
:1015C30001120B753DE801120B75F8E801120B755A
:1015D30024E901120B7567E901120B75CAE90112BF
:1015E3000B75D8EB01120B7504EC01120B75BFECF4
:1015F30001120B75A3ED01120B7537EE01120B757A
:1016030063CB04120B759BCB04120B75BCCB04127A
:101613000B75FECB04120B7562CC04120B756CCCEC
:1016230004120B757CCC04120B75B3CC04120B752E
:101633005CD004120B7524D204120B7508D4041267
:101643000B75AAD404120B7534D504120B75C52F70
:1016530000120B756E3000120B754D3100120B75B5
:10166300593200120B75793200120B759B3300123D
:101673000B754B3500120B75B83500120B75893697
:1016830000120B758F3700120B75073800120B759C
:10169300423800120B759B3800120B75D6380012B6
:1016A3000B751F3900120B75B33900120B75493ACC
:1016B30000120B751E3B00120B75F13B00120B75EC
:1016C3007F3C00120B75A53C00120B75D23C001237
:1016D3000B75033D00120B75D03D00120B75E03DF9
:1016E30000120B75333E00120B75403E00120B7552
:1016F3004D3E00120B75563E00120B75BA3E00129A
:101703000B75183F00120B75633F00120B757E3F7C
:1017130000120B75A53F00120B75C23F00120B752B
:10172300CE3F00120B755F4100120B75784100121A
:101733000B75F44100120B75074200120B7517422B
:1017430000120B75BB4200120B75274400120B7578
:101753003A4500120B75DA4500120B75E445001289
:101763000B75634600120B75744600120B75B34676
:1017730000120B75E14600120B75AE4700120B7594
:10178300054800120B753E4800120B759448001271
:101793000B75B24800120B75004900120B75CB494B
:1017A30000120B75194A00120B75664A00120B756D
:1017B300E94A00120B75134B00120B75494B0012CB
:1017C3000B75584B00120B75B74B00120B752F4C52
:1017D30000120B75704C00120B75C04C00120B7588
:1017E300EB4C00120B75054D00120B751F4D0012CB
:1017F3000B75F44D00120B75FE4D00120B75394E2F
:1018030000120B75494E00120B759A4E00120B75A0
:10181300AE4E00120B75D04F00120B75E54F001240
:101823000B75785000120B75EC5000120B7591512B
:1018330000120B759C5100120B75FF5200120B75B1
:101843001B5300120B75675300120B75D55300120F
:101853000B75075400120B75215400120B7581543C
:1018630000120B75205500120B756B5500120B758A
:10187300BE5700120B75565800120B75CD58001247
:101883000B752A5B00120B75425B00120B75455BEF
:1018930000120B75515B00120B75655B00120B7523
:1018A3006D5B00120B75A45B00120B75985C001244
:1018B3000B75225D00120B75A45D00120B75245E7F
:1018C30000120B75FB5E00120B751D5F00120B758A
:1018D300B65F00120B75136000120B7516600012D1
:1018E3000B75856000120B75D16100120B75E462F4
:1018F30000120B756F6300120B75826400120B7577
:10190300496500120B757A6500120B75A06500120C
:101913000B75A96500120B75D86500120B758866E7
:1019230000120B75386700120B75AB6700120B754D
:101933004E6800120B75C16800120B750069001226
:101943000B75496900120B7599F302120B7506F4B6
:1019530002120B7552F402120B75A4F402120B75EA
:1019630024F502120B7521F702120B7551F90212BD
:101973000B7584FC02120B75B3FC02120B75D1FCC0
:1019830002120B753BFD02120B7563FD02120B7500
:1019930096FD02120B75CBFD02120B752DFE021282
:1019A3000B75AFBE04120B752BBF04120B7559BF19
:1019B30004120B759EBF04120B75FFC004120B7546
:1019C3001BC104120B7551C104120B75CAC1041259
:1019D3000B7518C204120B75A8C204120B7580C3D1
:1019E30004120B75D1C304120B7536C404120B75A4
:1019F300A9C404120B75EDC404120B7545C504127A
:101A03000B7567C504120B75F7C504120B7588C6F1
:101A130004120B75C0C604120B75E9C604120B75CC
:101A23002AC704120B75CBC804120B75ADC9041277
:101A33000B7589CA04120B759FAF05120B75B0AFF6
:101A430005120B754EB005120B75EE7F00120B7568
:101A5300ECFF02120B75B8B105120B75C8B1051274
:101A63000B75E3B105120B754BB205120B759CADEB
:101A730005120B75069D02120B7586AE05120B75CA
:101A8300677E00120B75897E00120B75EF7E0012C4
:101A93000B750E7F00120B75567F00120B75AF7F0F
:101AA30000120B756DAC05120B7582AC05120B752C
:101AB300F6AC05120B7510AD05120B7527AD0512AB
:101AC3000B753AAD05120B7552AD05120B7567AD6B
:101AD30005120B75429405120B75509405120B7584
:101AE300C99405120B759E9505120B7570A9021208
:101AF3000B7517B605120B75D1F204120B753EF375
:101B030004120B75F6F304120B7560F404120B75D3
:101B130069F504120B75E5F604120B753DF7041213
:101B23000B7590F704120B7599F704120B75A8F750
:101B330004120B75BBF704120B75D1F704120B7566
:101B4300DAF704120B759BED04120B75C7ED041243
:101B53000B755DF004120B759DF004120B75D9F033
:101B630004120B75EDF004120B7506F104120B75DC
:101B7300F7F104120B75A9F204120B75BDF20412EE
:101B83000B7578FE02120B759CFE02120B75B5FEE7
:101B930002120B75F3FE02120B7529FF02120B756D
:101BA3005CFF02120B75C8FF02120B75CBFF02120A
:101BB3000B75D5FF02120B75E2FF02120B75C09D68
:101BC30005120B75E39D05120B752E9E05120B7501
:101BD3004C9E05120B75679E05120B75CD9E051263
:101BE3000B75D99E05120B75369F05120B755A9FFF
:101BF30005120B7520A005120B752DA005120B7590
:101C03003EA005120B75B5FF03120B75CDFF031232
:101C13000B75F9FF03120B7535F804120B7593F965
:101C230004120B75A1F904120B75B5F904120B75A7
:101C3300D2F904120B75E7F904120B75FAF90412C1
:101C43000B757CFA04120B75E2FA04120B7579FB1F
:101C530004120B7552FC04120B7562FC04120B7513
:101C630071FC04120B751FB105120B7543B10512FC
:101C73000B756BB105120B7593B105120B75B1A200
:101C830005120B75D8A205120B75F6A205120B757A
:101C93006BA305120B75D59705120B75EE970512FD
:101CA3000B75059805120B750E9805120B752C987C
:101CB30005120B75369805120B75409805120B75B6
:101CC300539805120B75DD9805120B755299051281
:101CD3000B75809905120B75D49905120B75209A13
:101CE30005120B753B9A05120B75459A05120B7578
:101CF3006B9A05120B75D09A05120B7568B0051215
:101D03000B758AB005120B7550B705120B75E3D529
:101D130004120B750FD604120B7532D604120B7511
:101D230045D604120B7560D604120B75C4D6041283
:101D33000B75F2D604120B75EADA04120B7541DC4B
:101D430004120B7573DC04120B75E6DC04120B75BD
:101D530069DE04120B7591DE04120B75A6DE041204
:101D63000B75B6DE04120B75F6DE04120B7538DF45
:101D730004120B7548DF04120B75DCA905120B75F1
:101D8300ECA905120B7510AA05120B7539AA0512D9
:101D93000B7563AA05120B7587AA05120B759EAA0C
:101DA30005120B75CCAA05120B75EFAA05120B755C
:101DB3008FB505120B75A19005120B75B190051225
:101DC3000B75CD9105120B75FF9105120B752592BD
:101DD30005120B754D9205120B755F9205120B756B
:101DE3009B9205120B75FF9205120B754493051216
:101DF3000B75899305120B75B69305120B75EE934C
:101E030005120B7579A805120B7599A805120B75A8
:101E1300ACA905120B75AFA905120B7555B20512C6
:101E23000B7592B205120B75D4B205120B75E4B2A1
:101E330005120B759BE604120B75D5E604120B75A0
:101E43003EE704120B755DE704120B75FDE7041200
:101E53000B7506E804120B7557E804120B7580E83E
:101E630004120B758DE804120B75FEE804120B7552
:101E73008CE904120B75DAE904120B7510EA0412EB
:101E83000B7571EA04120B7599EA04120B7510EBCA
:101E930004120B756CEB04120B75AFEB04120B758C
:101EA300ECEB04120B75FEEB04120B7510EC041231
:101EB3000B752FEC04120B7538EC04120B7506ED41
:101EC30004120B7546ED04120B756FED04120B75BE
:101ED30027AB05120B756CA005120B75A2A005129A
:101EE3000B75F1A005120B754AA205120B75359CF3
:101EF30004120B75669D04120B75A29D04120B75DB
:101F0300579F04120B75819F04120B75FAA10412DB
:101F13000B753AA204120B75CFA304120B756EA4B2
:101F230004120B75C6A404120B754CA504120B7591
:101F330084A504120B75C6A504120B7533A70412EE
:101F43000B75B3A804120B75F8AA04120B7526AB14
:101F530004120B7552AB04120B755BAB04120B75B9
:101F6300B1AB04120B7541AC04120B757FAF0412B5
:101F73000B7501B004120B75F1B405120B7512B792
:101F830005120B7528B705120B75A18805120B7581
:101F9300B68805120B75698905120B75A989051297
:101FA3000B75C28905120B75F58905120B75428AEB
:101FB30005120B75768A05120B75B88A05120B7517
:101FC300B78C05120B759FAE05120B75FEAE05128D
:101FD3000B753CAF05120B757DAF05120B75B6D5AE
:101FE30003120B75C2D503120B7524D603120B759E
:101FF3002ED603120B75B3D603120B75EFD603124D
:102003000B75A9D703120B75BCD703120B7526D812
:1020130003120B75C1D803120B7541D903120B754B
:10202300EFDA03120B75B8DC03120B7518DE03121B
:102033000B7563DF03120B750FE003120B75C5E419
:1020430003120B75B1E503120B754BE603120B7507
:1020530070E603120B750CE703120B752AE70312E4
:102063000B7547E703120B75BBE703120B75D7E735
:1020730003120B7504E803120B758CE903120B753D
:10208300ADE903120B7530EA03120B75D6EA03129E
:102093000B751DEB03120B75ABEB03120B7510ECF9
:1020A30003120B757BEC03120B7531ED03120B75E9
:1020B3009CED03120B75D8ED03120B7540EE031262
:1020C3000B75A2EF03120B7561F003120B75F8F099
:1020D30003120B7573F203120B7510F303120B75D6
:1020E30075F303120B757CF503120B759BF6031244
:1020F3000B75CDF603120B75B4F803120B75A1FA29
:1021030003120B75C9FB03120B75D1A605120B75D0
:102113006DA705120B758EA705120B75D3B50512A6
:102123000B75F8EE01120B7536F201120B75E5F61D
:1021330001120B7525F701120B75AAF701120B7526
:1021430059F801120B7595F801120B7515F9011267
:102153000B753BF901120B757AFA01120B75AEFA86
:1021630001120B7546FB01120B752CFF01120B7547
:1021730081D602120B75D9D602120B7569D70212DA
:102183000B75E2D802120B75C2D902120B757FDAF6
:1021930002120B7596DA02120B75E8DA02120B754E
:1021A3005CDB02120B75A8DB02120B75BBDB0212A0
:1021B3000B7514DC02120B752CDC02120B75EDDEB1
:1021C30002120B7583DF02120B75BADF02120B7555
:1021D30003E002120B7509E202120B7559E20212B7
:1021E3000B7533E302120B756CE302120B758BE371
:1021F30002120B75D6E302120B75F6E302120B758E
:10220300ADE402120B75A6E502120B7501E602128C
:102213000B7541E602120B7578E702120B75F4E9B0
:1022230002120B7527EA02120B75D1EA02120B7523
:10223300F6EA02120B757AEB02120B7559EC0212D5
:102243000B7597EC02120B75FBEC02120B75AFEDDD
:1022530002120B75B2ED02120B75BCED02120B7577
:10226300C6ED02120B75E2ED02120B7554EE02126B
:102273000B758DEE02120B75A9EE02120B75D5EEDE
:1022830002120B75FCEE02120B7520EF02120B7596
:102293005BEF02120B75CEEF02120B7502F0021206
:1022A3000B7543F002120B7578F002120B7598F060
:1022B30002120B75D5F002120B750CF102120B759D
:1022C3000FF202120B7547F302120B7566F302123B
:1022D3000B7541B505120B7559B505120B75F17FD9
:1022E30000120B7578DF04120B75C7DF04120B7530
:1022F30085E104120B7540E304120B757EE30412AF
:102303000B7573E404120B757EE504120B75A0E5DF
:1023130004120B75EAE504120B756BE604120B75D8
:102323007E6900120B75A16900120B75A56A001274
:102333000B75EE6A00120B75516B00120B75A56BD2
:1023430000120B75F66B00120B756C6C00120B759B
:10235300EE6C00120B75666D00120B75AC6D0012FE
:102363000B75CE7100120B75337400120B75D67496
:1023730000120B75497500120B756B7500120B7506
:102383002E7700120B75507900120B752F7A0012FD
:102393000B75B97A00120B75F67B00120B75C07CB6
:1023A30000120B75047D00120B75B87D00120B75BE
:1023B3005EB004120B7504B104120B7570B10412F4
:1023C3000B7515B204120B7574B204120B7522B39C
:1023D30004120B750AB604120B75AEB604120B7514
:1023E3000AB704120B75D2B804120B7574B9041230
:1023F3000B75A2BA04120B759FBB04120B753FBC7D
:1024030004120B7554BD04120B75008004120B7576
:10241300698004120B75B18004120B75F5800412E8
:102423000B75508104120B75AD8104120B75E88195
:1024330004120B756A8204120B75C48204120B75A5
:10244300388404120B75B08404120B75C88504120A
:102453000B75F08504120B75FA8604120B750B8746
:1024630004120B75238704120B754C8804120B7529
:102473006F8804120B753C8904120B756089041272
:102483000B75778904120B75988904120B75BA8939
:1024930004120B75AA8A04120B75048B04120B75B4
:1024A300838C04120B75DB8C04120B75F28C0412F3
:1024B3000B75448E04120B75C38E04120B75FA8EC2
:1024C30004120B75348F04120B75A08F04120B7555
:1024D3005F9004120B75389204120B753893041233
:1024E3000B757E9404120B75BE9504120B752E9713
:1024F30004120B753C9704120B75419804120B756B
:10250300E89804120B752E9904120B754399041263
:102513000B753C9A04120B75389B04120B75949B34
:1025230004120B75DB9A05120B751B9C05120B75B8
:10253300DA9C05120B75429D05120B75C48C0512AE
:102543000B75E28C05120B75268D05120B754C8DE0
:1025530005120B75738D05120B758B8D05120B759B
:10256300A38D05120B75BB8D05120B755E8E0512BF
:102573000B75A08E05120B75C28F05120B75CB8FD1
:1025830005120B75D48F05120B75DD8F05120B75B4
:10259300E78F05120B75008005120B75FE8305127C
:1025A3000B750C8405120B75118405120B755EA552
:1025B30005120B7532B705120B7584B305120B7533
:1025C3003DFF01120B75BDB605120B75788405121C
:1025D3000B75EEB205120B7518B305120B75E9B640
:1025E30005120B754FB605120B75E1FF04120B753F
:1025F30087B405120B7586B605120B7515B4051253
:102603000B75A2FC04120B75EA9C02120B75CC9C91
:1026130002120B75A79C02120B75B79B02120B7566
:10262300529B02120B75BB9A02120B75499A021246
:102633000B75389A02120B75549902120B75709828
:1026430002120B7557A902120B754DA902120B75D5
:10265300869502120B75439402120B7543A902125D
:102663000B7539A902120B75AA9102120B756591AC
:1026730002120B750B9102120B756C9002120B7503
:10268300179002120B75448F02120B757E8E021285
:102693000B75428E02120B75D58D02120B75CD8D03
:1026A30002120B75428D02120B75D28C02120B753E
:1026B300238C02120B75188C02120B75098C0212F3
:1026C3000B75E88B02120B75B48B02120B7525A9DF
:1026D30002120B75888B02120B7568A502120B751B
:1026E3008EA302120B7552A302120B75CEA2021215
:1026F3000B75A0A102120B7590A102120B756EA0AF
:1027030002120B758C9E02120B755A8A02120B75FC
:102713004E8802120B751F8802120B750388021272
:102723000B75839E02120B75AD8702120B757487AE
:1027330002120B75EC8602120B75A08602120B7542
:10274300769E02120B75598602120B75709705124D
:102753000B758C8502120B75108502120B7568843C
:1027630002120B75C18302120B75638302120B7580
:10277300388302120B75E98202120B75AB820212C7
:102783000B75898202120B75668202120B754D82DC
:1027930002120B75058202120B754F8102120B7523
:1027A300C38002120B75799D02120B7557800212BA
:1027B3000B75008002120B7520AE0500000080FB34
:1027C300E4738F0001009F1D87000100BD1E3500CB
:1027D3000400821E25000200861E26000200881EB9
:1027E300270002008A1E28000100941E2900010010
:1027F300951E84000400961E860001009A1E2A007E
:1028030001009B1E2B0001009C1E2C000100A01E3A
:102813002D000800861D2E000100A11E2F000100BF
:10282300A21E30000100A31E31000100A41E3200CD
:1028330001008E1D330001008F1D34000100A51E11
:1028430036000100901D38000100A61E390001006A
:102853009F1E83000200BB1E630001009C1D6400D9
:1028630001009D1E650001009E1E6D0001009D1D5F
:10287300710008007E1D66000100BA1E43000100BE
:10288300AB1E44000200AC1E45000100AE1E460014
:102893000200AF1E47000800941D48000100B11E4E
:1028A3004B000100B21E04000100BE1EA100010086
:1028B300C11E37000100C01E88000100BF1E3C007E
:1028C3000100911D3D000100A71E49000200B31E37
:1028D300670001009E1D4D000200B51E4E00010061
:1028E300B71E4F000200B81E3E000100931D5100A9
:1028F3000100A81E52000100A91E53000100AA1ED8
:1029030054000100921D00000000000000000300BD
:10291300200179810000000020017C810000040077
:102923004201668000000500420149800000060064
:10293300420138800000070020017D810000100063
:102943004203371E0000110020033F1C0000120049
:102953001003481E0200000029014A1E0600000061
:102963001001401C120055002101431C0207000006
:102973002503451C0207000622014B1C0207010622
:1029830022034C1E040B00001B014F1C040B050506
:102993002101531C040B08052101551C040B0B05D5
:1029A3002901571C040B00062101501E040B0106CC
:1029B3002101521E040B02062101501E040B0306C3
:1029C3002101521E040B04062101541E040B0506AB
:1029D3002101561E000136360101000102010001EA
:1029E300030100010401060605020000070100348B
:1029F3000801000F090401010D0100FF0E0800008A
:102A030017020000190100FF1A0100011B0100FE5B
:102A13001C0100081D0200001F010001200100012C
:102A2300210200002301000F2402000026010001FF
:102A330027010008280200FF2A0100072B0102409A
:102A43002C0100002D0100012E0100012F0100FFC8
:102A530030010B1D310800003A0100083B01000F53
:102A63003C0100013D0100FF3E0400004204000060
:102A7300460400004A0400004E0400005204000013
:102A8300560400005A0400000020202020202020AB
:102A9300202028282828282020202020202020200B
:102AA300202020202020202020881010101010101B
:102AB3001010101010101010100404040404040467
:102AC3000404041010101010101041414141414101
:102AD30001010101010101010101010101010101E3
:102AE30001010101101010101010424242424242F3
:102AF30002020202020202020202020202020202B3
:102B030002020202101010102001037103010301DD
:102B13000301030103010322030203010310030062
:102B23000300030003000300030003000342030048
:102B330003240306030003000304031203250323F2
:102B430003250323030403040300030003000344D6
:102B530003000300032303000365032100350381FE
:102B630003000305030003000300030003250323FD
:102B73000301017101010101011101010131010190
:102B83000101018001100161013B00140063017325
:102B9300017201620143010001130106013D013588
:102BA30000040112010001000100010001040104FD
:102BB30001330133013C01440132013600000100BD
:102BC30001650100013500810100010501820183D6
:102BD300010001030271023001600211027002015F
:102BE30002020202028002100261023A0041006303
:102BF30002730272026202430200021302380000EF
:102C03000200020402120200020002000200020497
:102C1300020402370037003C02440200023900007C
:102C230002000265020002350281020002050282EF
:102C33000283020002030071003001600011007082
:102C430000310220035004800010006100000014D2
:102C5300006300730072006200430000001300066B
:102C6300000000000004001200000000000000004B
:102C73000004000400370037003C02440000000059
:102C83000000000000650000003500810000000521
:102C930000000083000000030471040204600411B7
:102CA3000470040204020401040204100461040019
:102CB30004140463047304720462044304000413DD
:102CC30004060400040004040412040004000400C5
:102CD30004000451046400000400040004440400DC
:102CE3000400040004000465040004350481046442
:102CF30000050400048304000436000100060000FC
:102D0300000F0000000000000000000000000003AE
:102D1300FFFF00000403FFFF0000FFFF0FF40100AB
:102D230005C4040320000100000B000000000000A4
:102D3300000003010F00000000000000000000007D
:102D43000000000000000000000000000000000080
:102D530000000000000000B620F220BC20FC1FC2CF
:102D630020F820C2200421C820FC1FC220F820CE56
:102D730020FC1FD420FC1FDA20FC1FE020FC1FE6F0
:102D830020FC1FEC20FC1F000000000000000000DE
:102D93000000000000000000000000000000000030
:102DA3000000000000000000000000000000000020
:102DB30000000000000300200179810000000020D2
:102DC300017C81000004004201668000000500428E
:102DD30001498000000600420138800000070020FE
:102DE300017D81000010004203371E000011002006
:102DF300033F1C000012001003481E0600000010D1
:102E030001491E0A0000000200000004000000083F
:102E130000000010000000200000004000000080BF
:102E23000000000001000000020000000400000098
:102E33000800000010000000200000004000000017
:102E430000CE2313007A231F0080231F80862301D3
:102E530000CE2302003E230300442304004A23053B
:102E630000502306005C2336006E23FFFF000001A1
:102E7300E812061213080C130B2A1310121002EE99
:102E83001205001307F4120CD0120DDC12647A261B
:102E9300FF000007ECFDFDFDECDCDCCCBCACAC9C26
:102EA3009C8C7C7C6C6C5C5C5C4C4C3C3C2C2C1C8F
:102EB3001C00160F00000B150B020002220F33003B
:102EC300000E01030507090B0D0F00020406080A93
:102ED3000C0D5A6967426565416C6C69616E636587
:102EE3003039150AF4D4C0A59582726361555049EF
:102EF300303016181920231A1C1E303030171819B9
:102F030021301B1D1F3000034A49434E181A250563
:102F13000200011916181616182303000C0E020BD3
:102F2300040B0A0708000F00393D3F373C3C362CA1
:102F3300442D020402010101010902E8030000001B
:102F4300BE040A000000000E00962E7F00E803E591
:102F53002EFA060A0303080C0510000CFF1E1E0CB4
:102F6300050828040409100304150119000A00FFC9
:102F73000908E0041237F5A2E792AF22E4F0A3F0C8
:102F8300A3F022A3122F7FA3F0227F0C0208C1E03B
:102F9300F508E4F509F50AF50B227401F09008C36E
:102FA300E0640F227409120BA57F040208C1A3A3D6
:102FB300E024F5C39413229008E3125AE57A147BB4
:102FC3000022C082C08390061174AEF0A37416F081
:102FD300A374C0F0A37416F09006157496F0A3744E
:102FE30016F0A37490F0A37416F0A374CCF0A3743A
:102FF30016F0A374D2F0A37416F0A374C6F0A374EE
:1030030016F0A3747EF0A37416F090062174A2F058
:10301300A37416F0A374A8F0A37416F0A3749CF021
:10302300A37416F0A374D8F0A37416F090063212AA
:10303300507260061252DC121EE890062F12479E51
:103043007408F0A3E4F0A3F09006D2F0900634F0F5
:103053007C0BFDF97A357B06121E407C0B7D0079D3
:10306300007A407B06121E400247A774F71206AC93
:1030730074F7120C3EEAFEEBFF1245C574051231DC
:103083003B7403F0EE2402FAE43F123115242DFCC5
:10309300E43FFD8C828D8312325312312460081277
:1030A300399D74FFF0A3F0EE242BE43F1C1CFD8C30
:1030B300828D83A3E0C0E08A828B831245D6D0E061
:1030C30012312488828983124DCE24031258AF1201
:1030D3001FD87408120EC77403F09008D81209D4CD
:1030E3007402120C1E7903EEFAEFFB12186A7402D3
:1030F300120BA5E9F5087007EEFAEFFB121750A9BA
:103103000874090239ADF582E43FF58312651A129A
:103113004DC3FB8A828B83123133E8F0A3E9F0EECF
:1031230022125B03123133E8F0A3E912607FE0223D
:1031330012321E8A828B8322F0A3E4F012314322DF
:10314300EE240DF582E43FF5832274F11206ACEA16
:10315300FEEBFF8C088D09890A1232288A828B8341
:1031630012321E740F120EC7123241E824FF18E9FF
:1031730034FFF988828983E50A1232339008DD121D
:1031830032309008DC1232307411120EC712324101
:10319300EE2404FCE43FFD880B8A828B83E0F50C6C
:1031A3008C828D83E0250CC3950B125AFFE8F0A3A4
:1031B300E9124532A3A3A3A3A3A3A3A3E0640370CB
:1031C3000812488EF0A3E4800312353412313E74A2
:1031D30009F0750C35750D06750E00780C120B8E03
:1031E300123528121E347403120BA5750CFF750DCE
:1031F300FF780C120B92AC08AD097903EEFAEFFBE2
:1032030012186A7402120BA5E9F5087007EEFAEFBB
:10321300FB121750A9087F070208C1E024FFF8A397
:10322300E034FFF922EE2402FAE43FFB2212325388
:1032330012323722F0E824FF18E934FFF922E0F5CF
:103243000CA312325312323788828983E50CF022A1
:10325300E08882898322C082C083900651E0C394B0
:1032630008400474078001E08A828B83F033333390
:1032730054F8F90247A774F01206ACEAFEEBFF8993
:103283000C8C0E8D0F750A00A2AFE433F50BC2AFA1
:1032930090064B803F1233615037123372640370D0
:1032A30030EE24F9FEEF34FFFF850882850983A3FE
:1032B300A3E02405FCA3E03400FDEEFAEFFB121FAC
:1032C300D8EE24FF1EEF34FFFF7410250AF50A150C
:1032D3000C1244FF126516E50C6006E508450970FB
:1032E300B4E50BA2E092AFA2AFE433F50BC2AF900B
:1032F300064B802C2402FAE43509FB8A828B831265
:103303005AEE2406F582E438F58312337F8A828BE2
:1033130083123367A3A312337F050A150C1244FFEC
:103323001245146022123372640270F1123361E5A4
:103333000840C1123662A2E550E3850E82850F83F1
:103343007401F0E50C70D6E50BA2E092AF8E828F8C
:1033530083E50AF0EE24FFFAEF34FFFB80351236E3
:103363006DA2E62212336B22125EE3A3A3A322858E
:103373000882850983125EDD12551722E08E828F43
:1033830083F0EE24FF1EEF34FFFF2212193674047C
:10339300120BA57F080208C174EC1206AC74F51277
:1033A3000C3E89138A128B0F851882851983E4F0EA
:1033B30004120C16121660E9F89008C2E0292434AE
:1033C300F508FA7B00121E528A0A8B0BAE0AAF0B6A
:1033D300EE4F700302351CEE2402F50AE43FF50BB1
:1033E300A808EE28F8E43FF9850A82850B83123199
:1033F3001D2404F510E43FF511851082F583E4F0F4
:103403009008C2E0FCF8C3E498F895E0F9850A82D5
:10341300850B83E028F508A3E039F5099008C0126D
:1034230057A7750E00780C120B8E7D00AA08AB0906
:10343300121E347403120BA5AC18AD197401120ECD
:10344300C7E0F9E50824FFFAE50934FFFB12166625
:103453008A828B83E4F0EA24FFF508EB34FFF50955
:10346300E50FC454F0F99006D3E0C4333354C0F8E5
:103473009008BCE0A2E0E43313134849440F12352B
:103483003CE512C454F04513850882850983F0A8EE
:1034930008850A82850B83E0FA851082851183E013
:1034A3002AC398F0850A82850B83E8F0A3E509F027
:1034B30012353412313EE4F0740A120EC7E4F0758B
:1034C3000840750906F50A7808120B8E1235281282
:1034D3001E347403120BA5851882851983E06009D5
:1034E300EE240E12465B4408F0121852E9F9E4F593
:1034F30008F5097808120B927404120C1EEEFAEF09
:10350300FB12186A7402120BA5E97006EEFAEFFBC0
:10351300800BEEFAEFFB121E587A007B00740B123D
:103523000BA5022F8D7C0B7D00EE2418FAE43FFBE4
:10353300221245C9E4F0A322E0850882850983129B
:10354300354622F012577B2274F31206AC8A0A8B9B
:103553000BA2AFE433F50CC2AF75080075090090F8
:10356300064B802C1237895024850A82850B83A34E
:10357300A31269438E828F83A3A31252DF121858BA
:10358300E9600A1235AFC2E6F08E088F0912377E62
:10359300123A3770CFE50845096006123669D2E65C
:1035A300F0E50CA2E092AF7F050208C11235B32209
:1035B300125794E02274F01206ACEAFEEBFF8C0C77
:1035C3008D0D750E00A2AFE433F50FC2AF75080081
:1035D30075090090064B8020850A08850B09123671
:1035E30069D2E4F0E508123662D2E7F0E50A24FB7B
:1035F300F582E50B34FFF583E0F50AA3E0F50BE56F
:103603000A450B6043E50A1243EA350BF583E0A252
:10361300E750D9850A82850B83A3A31209D4AC0C86
:10362300AD0DEEFAEFFB12185E7402120BA5E96002
:10363300BBE508450960A1E508240D123675640150
:10364300700612367ED2E4F0E50FA2E092AFE508F1
:103653004509600612174A750E01A90E0233961228
:1036630044141236782212366D22E50824111236DC
:103673007522F582E43509F583E022850882850900
:1036830083125EDDE02274F21206AC74FE120C3E6D
:10369300750C00750D00851882851983E4F0A3F07D
:1036A300A2AF33F50AC2AF90064BE0FEA3E0FF8062
:1036B30035EE24FBF582EF34FF126514780C120B00
:1036C30092EEFCEFFD7A4B7B06121E887402120BFE
:1036D300A5EEFCEFFDAA18AB19121E76AE08AF09D2
:1036E300900651E014F0EE4F6027123789501DEE1B
:1036F300240BF8E43FF988828983E024FFF0A3E0F8
:1037030034FFF08882898312507260A512377A8061
:1037130099E50AA2E092AF900651E060319008C3A8
:10372300E0640F60069006D2E070237A297B0612CC
:10373300194290811C1209D07A297B06121936741A
:1037430004120BA5800874F01249C512173EAA187B
:10375300AB19121E7C8A0A8B0BAE0AAF0BEE4F60BD
:10376300131216721235AFA2E28E828F83A350D644
:1037730074E980D4023A3F8E0C8F0DEE24FBF58260
:10378300EF34FFF583221235B3A2E72274F7120652
:10379300ACEAFEEBFF1216721245D31227C3E9649B
:1037A300019008DF700AE02401F8A3E034008004EC
:1037B300E0F8A3E0F9124C21124FCA900651E070D1
:1037C300219008C3E0640F70197A297B061219420D
:1037D30090811C1209D07A297B06121936740412BF
:1037E3000BA5A9A8C2AF900651E0041237F5A2E7D2
:1037F300800DF0E9A2E7E433F8E922E508A2E092BC
:10380300AF024A6174F71206ACEAFEEBFF12383CD2
:10381300F0121672EEFCEFFD7A4B7B06121E82A9A4
:10382300A8C2AF900651122F759008C3E0640F70C1
:1038330005790812180A024A611235B3C2E42274E8
:10384300F71206AC74EA120C3EEAFEEBFF9008BCDA
:10385300E060408518828519837401F0120EC7E475
:10386300123914120EC7AA82AB83121FD88E828F0D
:1038730083123684C0E0740A120EC7D0E0125B14C0
:10388300740B120EC7AA82AB83121882AA18AB1943
:1038930012259674160239AD74F71206ACEAFEEBE4
:1038A300FF121654E9F974DC69601E74DD6960194E
:1038B30074E469601474F369600F74DE69600A74F8
:1038C300DF69600574DB697007EEFAEFFB1218100D
:1038D300024A6174F71206AC74EB120C3EEAFEEB7B
:1038E300FF8518828519837406123914120EC7AA2C
:1038F30082AB83121FD8125B19740A120EC7AA82F5
:10390300AB83121882AA18AB1912259674150239C3
:10391300ADF0EE2413FCE43FFD74022274F71206AB
:10392300AC74F7120C3EEAFEEBFFEE242D12465B5D
:1039330060651241ECAA18AB19121FD87408120E55
:10394300C77403F09008D81209D412399D1209D410
:103953009008EBE0F97404120C1EEEFAEFFB12165A
:103963005A7404120BA5E9F974DC69602374DD69E8
:10397300601E74E469601974F369601474DE69602D
:103983000F74DF69600A74E869600574DB697007A6
:10399300EEFAEFFB121810023104EE1239A22224C0
:1039A3002BF582E43FF583227403120BA5024A61CF
:1039B30074F21206AC8A088B09750C00750D00753C
:1039C3000AE7A2AFE433F50BC2AF90064B800312B4
:1039D300377A123A37603512378950F312465864F2
:1039E3000170ECEE242FF582E43F123BE6E06870B1
:1039F300DE780C120B92EEFCEFFD7A4B7B06121E67
:103A0300887402120BA5900651E014F0E50BA2E0B6
:103A130092AFEE4F6013EEFAEFFB12167279F0EEEF
:103A2300FAEFFB121810750A00A90AAA08AB0912CB
:103A33001810800DE0FEA3E0FFEE4F227402120B7C
:103A4300A57F060208C174F41206AC74F7120C3E8B
:103A5300EAFEEBFF8E828F83A3E064F37003023AE6
:103A6300F38E828F83A3E064DF7003023AF38E82C6
:103A73008F83A3E064E860788E828F83A3E064DBA6
:103A8300606E1216B4E9F508705EEE240E12465B02
:103A93006056123AFD1216FCEA4B604C7408120E83
:103AA300C7123B071209D47508FF7509FF7808127E
:103AB3000B928E828F83A3A3A3A3A3A3A3A3E0F953
:103AC3007404120C1E12165A7404120BA5E9F5089D
:103AD30074F36508601274DF6508600C74E86508A8
:103AE300600674DB6508700F8E828F83A3E508F090
:103AF300EEFAEFFB1216C0022FA7EE240FFAE43FF3
:103B0300FB79092274021262DC74FFF0A3123B14E6
:103B130022123B1822124DD7A3A32274F51206AC2E
:103B23008A088B097E008A828B83A3A3A3A3A3A302
:103B3300122FB140027EE88A828B83A3A3A3A3A39F
:103B4300A3A3A3A3A3E0C3941040047EE880138A35
:103B5300828B83A3A3A3A3A3A3A3A3A3A3E0640F21
:103B6300600A9006AFE0540870027EE8EA240BF581
:103B730082E43509123BE6A3A3A3A3A3A3A3A3E073
:103B8300C398500CEA240B123675640F60027EE86A
:103B93009008DCE0F47003A3E0F470027EEC7A2377
:103BA3007B00121EE29006321252EF900632125040
:103BB300726029850882850983A3A3A982AA8389C0
:103BC300088A09750A007808120B8E7C237D00127F
:103BD30052DC121E347403120BA580027E1AEEF916
:103BE30002647DF583E0F88A828B83A3A32274F5B4
:103BF3001206ACEAFEEBFF8E828F83A3A3A3A3A3DB
:103C0300A3A3A3E09008C31261BF9008DE1261A5CD
:103C13009008BE1261C49006D3F0F9121CA8900656
:103C2300D3E06018EE2404FAE43FFB7950121C90B1
:103C3300EE2406FAE43FFB79E1121C909006D212BF
:103C43002F9D60047401800274009006341261ABEE
:103C5300120B8E7C0B7D007A357B06121E347403A7
:103C6300120BA5EE2418F508E43FF5097808120BAA
:103C73008E7C0B7D007A407B0602647574F7120616
:103C8300ACEAFEEBFF8E828F83A3E070061252DC58
:103C93001216BA8E828F83742C1249C512181C0215
:103CA3004A6174F71206ACEAFEEBFF90063212503B
:103CB30072600D1252DC900632E4F0A3F0121EE89B
:103CC3008E828F8374081249C5122596024A617445
:103CD300F61206AC9006D2E06013900634E0700D45
:103CE300123CF312166CEA4B6003121750025E1F6C
:103CF3009008BEE0FB9008DEE0FA9008C3E0F922EA
:103D030074F41206AC74E7120C3EEAFEEBFF750B7B
:103D1300018E828F83A3A3A3A3A3A3A3E0A2E25054
:103D230068EE242BF582E43F126941123DC112165D
:103D330078E97055908094E064017005750B0080FC
:103D430048123DC9120B8E7C0B7D007411120C16A8
:103D5300121E347403120BA5121852E9FA740E12D0
:103D63000C0E880889097808120B927508307509BA
:103D7300007808120B9212399D1209D4125AB579A0
:103D8300011218707406120BA585188285198374A5
:103D930010123914120EC7AA82AB83121FCC123928
:103DA3009D125AE1740B120EC7124FCA740D120EF4
:103DB300C7E50B1248381225967419022FA9EE2471
:103DC30013FAE43FFB22EE24081261B322C082C03F
:103DD300839006D3E060031218C40247A7C082C0D1
:103DE300839006CA7411F0A37406F0A37415F0A3AC
:103DF3007406F0A37421F0A37406F0901DBE749AA8
:103E0300F0A3742CF09006B4744EF0A37416F090E3
:103E130006567484F0A37416F0900658748AF0A3BF
:103E23007416F09006AFE044028001E4F00247A765
:103E3300C082C083EAFCEBFD7903024E43C082C01B
:103E430083EAFCEBFD7905024E43C082C083790807
:103E5300025FB0C082C08374FE120C3E90065E7493
:103E630038F0A37417F09006607432F0A37417F05F
:103E7300800D7A4B7B06121E7C12482E121840903E
:103E8300064B12507270EB90064D125072600F7A0F
:103E93004D7B06121E7C12482E12184080E99006B4
:103EA3004BE4F0A3F0900651122F80740280027449
:103EB30011120BA50247A774F61206ACE9FF742A88
:103EC30029F582E4342FF583E493FEFA7B00121E76
:103ED30052EA4B6011EA2E124FC08A828B83A3A34E
:103EE300A3A3E4F0802C7A027B00121E52EA4B60FB
:103EF3001D74FE2FF582E4342EF583E4938A828BBE
:103F030083F0A3741AF09006AAE0F9121E5E7A00F9
:103F13007B00025E1FE9FC740629F8EAA2E0501E4A
:103F2300E875F00A84E5F0F96014740A28C399F877
:103F3300E9C394054004740A28F8740B28F8ECC309
:103F4300941340047A1480027A06EA28790024093B
:103F5300F85001097A0A7B0012044AE8F9020B724D
:103F6300C082C0839006AFE05402600A12259CE928
:103F730060047901800279000247A7C082C0839060
:103F830006AFE054026016900651E0700C12506FB9
:103F9300600BE0C812450C500479018002790002DD
:103FA30047A7C082C083908091E0F8900653E0C396
:103FB300985005121E5280047A007B000247A7C066
:103FC30082C08312184079000247A774F71206AC27
:103FD30074FE120C3E851882851983EAF0A3EB1256
:103FE300413DA3A3A3A3A3E0600A14606024FE6081
:103FF300690240BE9008C3E0640F6018121816E906
:1040030070128518828519831252DF90065A124561
:10401300D61227C39008EBE0C0E085188285198388
:10402300124DA1D0E012413D74141262D8126943BB
:104033007A4D7B06121E76A8A8C2AF900653E00401
:104043001252F5792012180A74020239AD851882CA
:10405300851983125EE5741580D0851882851983CE
:10406300124120A3A3E06053851882851983E024BD
:1040730002F8A3E03400F988828983126716E0C04E
:10408300E0851882851983E0FCA3E0CC2406F58241
:10409300E43CF583D0E0125B21888289831252EFDE
:1040A30085188285198312440885188285198360CF
:1040B30013124125600512412D4043AA18AB191272
:1040C3001840808412412560F212412D501C124584
:1040D3001CFA851882851983124127F87434124F0C
:1040E300BB342FF583E4936A6014851882851983A2
:1040F300124125640870C412451C640870BD124542
:104103001C14124145240AC0E085188285198312C4
:1041130045D6D0E01241450402402DE0F8A3124DEC
:10412300EE22E0F8A3E012414C2285188285198320
:10413300125AF212414DC3940A22124157F5838851
:10414300822212415712414C22C82406F582E438D8
:10415300F583E0221262DCE0F8A3E022C082C08390
:104163009006621250726008125EE61227C3800244
:1041730079000247A774F71206ACEAFEEBFF12318F
:10418300437401F0EE2430F582E43FF58312584F77
:1041930012311D243212465BC0E0EE2413F582E493
:1041A3003FF583D0E0F0EE243312465BC0E0EE240B
:1041B30014F582E43FF583D0E0F0EE242CF582E49D
:1041C3003FF5831209D41241ECEE242E12465BF91B
:1041D30012186A7402120BA5E9F5087007EEFAEFDC
:1041E300FB121750A908024A61EE2423FCE43FFDA9
:1041F30022C082C083121816E960047920800279F4
:10420300010247A7C082C083EA1243EA1242ABD23B
:10421300E0023E2FC082C0831242A56401701112D6
:1042230042B0400C8A828B83A3E0F9121810806F8E
:10423300EA24101242A8A2E650128A828B83A3E0DA
:10424300F990065C1245D61227C380531242A56427
:1042530001700D1242B050088A828B83743080360D
:104263008A828B83A3E0641B8A828B83700474220B
:104273008024A3E0700D1242A5F874F3124FBB34EF
:104283002E800B1242A5F874FE124FBB342EF58319
:10429300E4938A828B83F09006AAE0F9121E5E02F1
:1042A30047A7EA240DF582E43BF583E022EA1244B2
:1042B300143BF583E0A2E32274F71206ACE9FE1285
:1042C300506F70030243E1EE6011741B6E7013E0D4
:1042D300C81243E4640570030243AC125ED5E402E2
:1042E30043B074E96E7062124400700B1225A2E9A8
:1042F300600512441A606279EE121C129006541281
:1043030043FD900654603B12441D900654700B12FB
:1043130043FD14F0121DD40243E1124408C2E71214
:1043230045281243E46403700C125AEB1243EA1259
:104333004152D2E2F079ED121C121243F01227C35C
:104343008075125ED874E9806474E16E703E122544
:10435300A2E9605512441A70509008E5E0C0E012DB
:104363005AEB2412F582E438F583D0E0F09008D4B8
:10437300E0C0E090065412411E12411ED0E0F090BE
:1043830008D4E004F07901121DBC8052741C6E70D5
:10439300189006541252DF9006641245D61227C3B2
:1043A300900654E4F0A3F08035125ED5EEF090064B
:1043B300541252DF12173E125AEB125ABDE05480C8
:1043C30060109008EBE0F9121CCC9008EAE0F912B7
:1043D3001CC0900654E4F0A3F0791012180A024AA4
:1043E30061240D12414F222411F582E422900654D8
:1043F3001252E3900658125EDF22E0F8A3E0C824CD
:104403001212414F22E0F8A3E0C8124414124152A1
:10441300222410F582E422900654125AF2125AC151
:10442300E054042274F41206AC750A00750B00A262
:10443300AFE433FFC2AF12506F60030244E412458E
:10444300D31227C3E94410F890064B800985080A64
:1044530085090B1244FF12451470030244E412361B
:1044630069586870E8780A120B92AC08AD097A4B68
:104473007B06121E887402120BA5900654E508F001
:10448300A3E50912452812450C405D900652E0143D
:10449300F0EFA2E092AF900654E0240EF8A3E034CC
:1044A30000F9880889098882F5831252DF9006543F
:1044B300124522F9121702E990064FF0124530E037
:1044C30054809006546026125AEE241312414FF979
:1044D300121CCC125AEB241412414FF9121CC08047
:1044E30018EFA2E092AF801190065180A112440808
:1044F300A2E1B3E433F9121DBC022FACE50824FB9F
:10450300F582E50934FFF58322241112414FA2E716
:104513002212651AE5084509228518828519831236
:10452300336BA3E022F0900654125AF222A3E4F074
:104533008508828509832274F71206ACEAFEEBFF35
:1045430012183AEE241012465BA2E3400C124658AE
:104553006401700590808F8003908090E0F9EEFCF9
:10456300EFFD7A4B7B06121E8EE96046EEFAEFFBF7
:1045730090065E1245D61227C3EE240E12465B54F4
:10458300047020A8A8C2AF900652E0041252D5FAD4
:10459300E8A2E792AF1245C5A3E0540170211217B8
:1045A3004A801CEEFAEFFB9006561245D61227C33B
:1045B300800D8E828F83A374F11249C512173E02B8
:1045C3004A611245C922EE240EF582E43FF58322A7
:1045D300900660125EDF22C082C08312174A024730
:1045E300A774F71206ACEAFEEBFF79009006AFE082
:1045F3005402700CEE243012465B5404600279E8D6
:104603009006AFE05460700CEE243012465B540207
:10461300600279E88E828F83A3A3A3A3E0F890803E
:1046230095E0C398500279E8EE242E12465B700C95
:10463300EE242B12465B700479F5800BE9700512AA
:10464300172CE9F9E96007EEFAEFFB121810024A9A
:104653006134FFF509EE240DF582E43FF583E02292
:10466300C082C0838A828B83740DF0122596024721
:10467300A7C082C0838A828B83E4F0A3F0EA24304C
:104683001242A8540490808F7012E0F8900652E012
:10469300C398401279F11218100247A7E0F8900668
:1046A30051E0C39850EE9006AAE0F9121E5E80E92D
:1046B30074F61206ACE9FE244CFAE43400FB121E35
:1046C30052EA4B6012EE8A828B83A3A3A3A3F0EA80
:1046D300244C124FC080047A007B00025E1FC0820C
:1046E300C0839006667498F0A37417F0A374C8F09F
:1046F300A37417F0A3749EF0A37417F0A374A4F02B
:10470300A37417F0A374C2F0A37417F0A374B6F0E4
:10471300A37417F0A374B0F0A37417F0A374CEF0CE
:10472300A37417F0A374D4F0A37417F0A374DAF08E
:10473300A37417F0A374E6F0A37417F0A374AAF09C
:10474300A37417F0A37492F0A37417F0A3748CF0FE
:10475300A37417F090068274BCF0A37417F0A374CB
:10476300E0F0A37417F0A374FAF0A37418F0A37421
:10477300ECF0A37417F0A374F2F0A37417F090068F
:10478300A6E4F09006A9F090069212479E7402F0F8
:1047930090069B12479E7401023E2F740AF0A37485
:1047A30018F0A322D083D082020B7274F51206ACE8
:1047B30074F1120C3E8518828519837402F074011A
:1047C300120EC7E9F060047AFF7BFF7402120EC772
:1047D3001252EF75089E750906750A007808120BC8
:1047E3008E7C0B7D007407120EC7AA82AB83121E48
:1047F300347403120BA5AA18AB19122596740F0271
:10480300647A74F71206AC74FD120C3E8518828527
:104813001983740AF07401120EC7E9F07402120EC0
:10482300C7EA1248381225960239AB8518828519D2
:1048330083EAF0A3EBF0AA18AB192274F61206ACC4
:1048430074F7120C3EEAFEEBFF12488E12313B74F2
:10485300021249B6AA18AB19121FCCEE242E12313C
:104863000924301258BC120B927402120C1E798365
:104873001A1AEFFB12186A7402120BA5E9F50870F5
:1048830007EEFAEFFB121750025E181245C97401C6
:104893002274F01206AC126363120E587808790C76
:1048A3001205457808120B8A7A957B0602338E74BB
:1048B300F41206AC74C6120C3E9008C3E0640F6099
:1048C30010851882851983742E12483812181C809B
:1048D300277A8C7B06121942122FBA1204528808C7
:1048E3008909E4F50AF50B7808120B8A7A8C7B06A2
:1048F3001219367404120BA5743A022FA974F51217
:1049030006ACEAFEEBFF8E828F83A3E0F86003021E
:10491300499FEE242D12465B64026007E064036046
:104923000278E8EE2423F582E43FF583122FB340A7
:104933000478E8806AE87064EE2423FAE43FFB79A4
:10494300E1121C90EE242EFAE43FFB7950121C90E6
:10495300EE242D12465B6402700E125AAB125AE11A
:104963009008D2124FCA80129008D274FEF0A304AA
:104973001249B67AC97B08121FD8EE2418123DCC0F
:10498300120B8E7C0B7D007A9E7B06121E34740301
:10499300120BA5EEFAEFFB121786E9F8E86011E8AF
:1049A3008E828F83A3125D0D74171249C512181CD2
:1049B30002647DF0EE2425FCE43FFD228E828F838A
:1049C3007429F0EEFAEFFB2274F61206AC74F712B8
:1049D3000C3E9006A9E0703B7401F0F9121D86AA03
:1049E30018AB1912184C75089E7509067808120B36
:1049F300927508017509007808120B929008D81275
:104A030009D47406120C1E7A037905121870740601
:104A1300120BA5025E1A74F71206ACEAFEEBFF79DD
:104A230001121D8C8E828F83E064207004A374EBCB
:104A3300F09006A9E0A2E25003C2E2F0E0A2E15046
:104A430008124C63121780800C8E828F83742A1293
:104A530049C512181C8007EEFAEFFB1218B87F0144
:104A63000208C174F41206AC74FE120C3EEAFEEBAB
:104A7300FF7901121D8C7A8C7B061219427A957B81
:104A830006121942124DAD851882851983124DE124
:104A9300E0F50B700FAA18AB197953121C9012652D
:104AA3000A121C90123DC9120B8E7C0B7D007A9E5C
:104AB3007B06121E347403120BA585188285198395
:104AC3001252DFA90B12177A9006A9E0A2E1500C4B
:104AD3007A008E828F83A3E0F91217809006A9E4EF
:104AE300F07402022FA974F71206ACEAFEEBFF8EF4
:104AF300828F83A374EBF09006A9E0A2E150077ABA
:104B03000079EB121780EEFAEFFB1217B6024A6137
:104B130074F71206ACEAFEEBFF7901121D8C7A8C56
:104B23007B061219427A957B061219429006A6E477
:104B3300F09006A9F07AFF7BFF8E828F83A3E0F9C2
:104B430012177A024A6174F71206ACEAFEEBFF12FF
:104B530017B0024A5A74F71206ACEAFEEBFF79016A
:104B6300121D8C8E828F83A3A3A3A3E06004740021
:104B7300800274EB124BAA5003C2E2F0E0A2E150B0
:104B830008124CAC1217808014A2E050108E828F52
:104B930083742AF0A374EB1249C512181CEEFAEFC2
:104BA300FB121762024A618E828F83A3F09006A9DB
:104BB300E0A2E22274F61206ACEAFEEBFF9006A92D
:104BC300E0D2E1F07901121D868E828F83A3E0701B
:104BD3003C121852E9FAEE240DF508E43FF5097882
:104BE30008120B927508017509007808120B9212CE
:104BF3004C211209D4EE2402FCE43FFD790512187E
:104C0300707406120BA5E98E828F83A3F08E828FB8
:104C130083A3E060067A00F9121780025E1F124C2C
:104C23002522EE240BF582E43FF5832274F7120666
:104C3300ACEAFEEBFF7901121D8C8E828F83E06458
:104C4300207004A374EBF09006A9E0A2E25003C223
:104C5300E2F0E0A2E15006124C63121780024A61AF
:104C6300C2E1F07A008E828F83A3E0F92274F712F7
:104C730006ACEAFEEBFF7901121D8C7A8C7B0612DF
:104C830019428E828F83A3A3A3A3E06004740080E0
:104C93000274EB124BAA5003C2E2F0E0A2E1500609
:104CA300124CAC121780024BA0C2E1123B14A3E0DA
:104CB300A2E4E433FA8E828F83A3E0F92274F7121D
:104CC30006ACEAFEEBFF7901121D8C8E828F83A363
:104CD30074EB124BAF5003C2E2F0E0A2E1500612B4
:104CE3004C63121780024A6174F71206ACEAFEEBBA
:104CF300FF7A8C7B06121942EEFAEFFB1217DA02E7
:104D03004A5A74F71206ACEAFEEBFF7A8C7B061262
:104D13001942EEFAEFFB1217DA024A6174F7120630
:104D2300AC74EF120C3EEAFEEBFF125AB57AC97B64
:104D330008121FC6E960628518828519837409F019
:104D43007401120EC774EFF0124DADF87402120E17
:104D5300C7E8124DE1A3A3E0C0E07404120EC7D06C
:104D6300E0124DCE640870158E828F83A3A3124D7B
:104D7300A1E0C0E07405120EC7D0E08006740512EE
:104D83000EC7E4125B147406120EC7AA82AB831219
:104D93001882AA18AB1912259674110239AD125A4A
:104DA300F22407F582E438F58322124DC3FB8A828D
:104DB3008B83125AE588828983E0FCA3E0F9EC2215
:104DC300EE2402F8E43FF9E8FAE922124DD2221266
:104DD3004DD7E022F08E828F83A3A3A3A322F0A357
:104DE300E9125B03124DEB22E0F8A3125EE6A3A3E4
:104DF30022C082C0831218C40247A7C082C0839016
:104E030006C67466F0A37406F0A37482F0A3740656
:104E1300F0901DB87474F0A3742BF0A374D6F0A3B0
:104E2300742BF09006B27474F0A37417F09006AF6D
:104E3300E04401023E2FC082C083EAFCEBFD79020D
:104E43001218280247A774F61206AC74FE120C3E21
:104E53009006AB12507260077AAB7B061218409033
:104E630006B1E4F0901BB012507260268007AA18B6
:104E7300AB191218409006AAE0F9121E6A8A088B31
:104E830009A808A909851882851983124FCAE84918
:104E930070DC7402025E1C74F71206ACE9FA7B0044
:104EA3009006AAE0F9121E94024A6174F71206AC46
:104EB30074F0120C3EEAFCEBFDE9FE8C828D83E07C
:104EC300F8741F124FBB342FF583E493C0E07401D1
:104ED300120EC7D0E0F0640B700DEE8C828D83A3AD
:104EE300F01218A6024FAEE07003024FAE640C60DE
:104EF30003024F9F741A6E700B7404120EC7E4F012
:104F0300A3024F9E7404120EC7ECF0A3EDF0EC2441
:104F13002F124FB3C0E07403120EC7D0E0126076B5
:104F2300120EB07406120EC7120E988C828D831265
:104F33005AD8740A120EC7124FCAEC240E124FB37A
:104F430054106009851882851983E48013EC2412B8
:104F5300124FB3F89008E5E0C3988518828519834A
:104F6300F0E0C0E0740C120EC7D0E0F0EC24151290
:104F73004FB3C0E0740D120EC7D0E0F0EC2416124C
:104F83004FB3C0E0740E120EC7D0E0F0EC2417123A
:104F93004FB3C0E0740F120EC7D0E0F07402120ECC
:104FA300C7EEF07401120C1612259674100239AD77
:104FB300F582E43DF583E02228F582E422F8E43B20
:104FC300F98A828B83A3A3E8F0A3E9F022C082C00D
:104FD300839006B1E06403700479018002790002D2
:104FE30047A774F71206AC9006B1E012505C126941
:104FF300418A828B83E0C2E7F025E0F8EC124FBBD5
:105003003DF583A3E493FE12505CF5831250726066
:1050130005EE9006B1F08A828B83E0125068EC288B
:10502300F582ED39F583E493FCC4540F25E0F8745D
:10503300C0124FBB3406F5831250727005121894D8
:105043008014EC540F25E0FCE82CF582E439F58359
:105053001245D61227C3024A6112506874B628F566
:1050630082741D392225E0F8E433F92290065412A4
:105073005AE5E8492274F11206AC74FE120C3E891B
:105083000AEAFEEBFF125174FA7B00121E528A08E1
:105093008B09EA450960388A828B83E50AF0A3E429
:1050A300F08E0C8F0DF50E780C120B8EA80A125190
:1050B30081EA2402FAE43509FB121E347403120B4D
:1050C300A5AA08AB099006AAE0F9121E5E80128514
:1050D3001882851983E50AF0791AAA18AB191218F0
:1050E300107402120BA502321974F21206AC74FE8C
:1050F300120C3E890B8A088B09125174F50AFA7B4C
:1051030000121E528A0C8B0DAE0CAF0DEE4F604A8F
:105113008E828F83E50BF0A3E4F0A80AEE28F8E46F
:105123003FF98E828F83124FC88E828F83A3A3A3EE
:10513300A3E4F0F50A7808120B8EA80B1251811222
:10514300352C121E347403120BA5EEFAEFFB9006F6
:10515300AAE0F9121E5E79008014851882851983EE
:10516300E50BF0791AAA18AB19121810791A023A3A
:105173003F740929F582E4342FF583E493227414F0
:1051830028F582E4342FF583E493FC7D0022C0826A
:10519300C083E99006AA023E2F74F61206AC74FE91
:1051A300120C3EEAFEEBFFEE542070378040A8A8B5
:1051B300C2AF900653E0141252D5F508E8A2E79265
:1051C300AF8A828B831252CC9006AD1252EF121823
:1051D3001C851882851983E0641560077AAD7B0608
:1051E3001218407A4D7B06121E7CEA4B70C0EF54B6
:1051F300807012801C9006AD1252EF12181C7AAD0B
:105203007B061218409006AAE0F9121E6AEA4B7058
:10521300E4EE5410600E851882851983742D1248AC
:105223003812181CEEA2E0500E851882851983747B
:105233002412483812181CEE5402600E8518828519
:105243001983742512483812181CEE5404600E8515
:105253001882851983742612483812181CEE5408D4
:10526300600E851882851983742812483812181C19
:10527300EE544060107401120EC71262D7742C12E0
:10528300483812181CEE548060107401120EC712B5
:1052930062D7742F12483812181C9006AB12507242
:1052A3006020A8A8C2AF9006AB1252DF9006ABE411
:1052B300F0A31252F51252EE12181C7AAD7B0612AD
:1052C30018407A007B00024E95E085188285198389
:1052D300F022F0E8A2E7E433229006321252E322EE
:1052E300E0FAA3E0FB22A3A3A3A3A3A3EAF0A3EB07
:1052F300F0221252D5FEE8A2E792AF22C082C08309
:105303009006AD125AE1EA687002EB6970079006E5
:10531300ADE4F0A3F00247A774F71206ACEAFEEB84
:10532300FFEE4F7003121A4AA2AFE433F508C2AF7F
:105333008E828F831250726028E824FBFAE934FFCF
:10534300FB9006AD126943E86C7002E96D7007903B
:1053530006ADE4F0A3F08E828F83E4F0A3F0121E77
:10536300E80237FEC082C0839006D47488F0A37429
:1053730018F0A3749AF0A37418F0A374A0F0A374A4
:1053830018F0A3745CF0A37417F0A374A6F0A374CD
:1053930018F0A37456F0A37417F0A37462F0A37407
:1053A30017F09006E274D6F0A37418F0A374ACF06F
:1053B300A37418F0A374B2F0A37418F0A374BEF02E
:1053C300A37418F0A374B8F0A37418F09006D30272
:1053D3003E2EC082C0839008D2E064FE7003A3E037
:1053E300F470097CC97D08121FCC80158A828B83D7
:1053F300A3A3A3A3A3A3A3A37402F0125557124F0D
:10540300CA0247A7C082C0839008DCC3E094FEA30E
:10541300E094FF40047903800279020247A7C08227
:10542300C0831255628C828D83125517687039744C
:105433000268701C8A828B83125470E06870298A18
:10544300828B83A3125470A3E068701C7901801AC5
:105453007403687013EC2405FC50010DEA2405FA6B
:1054630050010B121FD2800279000247A7A3A3A306
:10547300A3A3E0F88C828D83A3A3A3A3A32274F632
:105483001206AC7E00740A120EC7E012550BFF8A97
:10549300828B83A3A3A3A3A3A3A3A3E06F706474CA
:1054A300026F704E8A828B83C082C0838882898315
:1054B300A3A3A3A3A3E0F50888828983A3A3A3A33B
:1054C300A3A3E0FBAA08D083D082E06A7003A3E021
:1054D3006B703088828983A3A3A3E0FA88828983CF
:1054E300A3A3A3A3E0F9EA6C7002E96D70157E0132
:1054F300801174036F700CE82405FCE439FD121F5E
:10550300D2E9FEEEF9025E1FF8A3E0F988828983EF
:1055130012551722A3E01313543F540322C082C031
:10552300838A828B83A3A3A3A3A3A3A3A3E064027D
:105533007014125557E0687003A3E0697004790191
:10554300800F7900800BEAFCEBFD7AC97B08121F00
:10555300C60247A79008D2125AE58A828B83228A11
:10556300828B83125517F82274EC1206ACEAFEEB19
:10557300FF8C128D13750A008C828D83A3A3A3A3C2
:10558300A3A3A3A3E0F510E9A2E75008750CFF75E8
:105593000DFF80069008D81257A7E9C2E7F511EE70
:1055A300240E12465B542060071257887408800447
:1055B300125788E41257AF5404600712579074804F
:1055C300800512579074101257AF5410600612578B
:1055D30060E4800B9008E5E0C0E0125760D0E01271
:1055E30057AFA2E05003750A2054086006741045B3
:1055F3000AF50A8E828F83A3A3E024FFF508A3E0B4
:10560300124654C39402E0400B640B6005E014128D
:10561300353C7403450AF50A750B009008F8E064FD
:105623000170118E828F83A3A3A3A3E0C394674069
:1056330003750B1085110E750F00740E780E120D85
:1056430021E50F450BF50B7414120EC7E0F50EA3FD
:10565300E0F50F74026511700E9008DD12353B9072
:1056630008DC12579E801374036511701212576A77
:105673007CEC7D08AA08FB121FD81257778004E53B
:10568300116028E5106014E50E650C7004E50F65E4
:105693000D70087440450AF50A8010850882850953
:1056A30083E50D1257B5E50C12354285100C750DC7
:1056B30000740A780C120D21E50D450BF50B7402ED
:1056C30065107015851282851383A312353B8512ED
:1056D3008285138312579E80137403651070121210
:1056E300576AAC12AD13AA08FB121FD81257778062
:1056F30004E5106010850882850983E50F1257B50C
:10570300E50E123542A808A909E824FFF508E912B5
:10571300465470059008C880039008D4E0FA04F05A
:10572300EA88828983124532E50B1257B5E50AF000
:10573300EE2404F8E43FF9123228AC088A828B8302
:10574300E0F50A88828983E0250AC39C125AFFEC9C
:10575300F0A3E509125C7BE4F0F9022F8DEE24122D
:10576300F582E43FF58322E50824F9F508E50934D9
:10577300FFF5092212577B22E50824FFF508E50906
:1057830034FFF50922EE1244143FF5832212579495
:1057930022EE2411F582E43FF58322E08508828519
:1057A3000983F022E0F50CA3E0F50D22F01245C9C0
:1057B300E022123546850882F5832274EE1206AC88
:1057C300890A8A0B8C108D11750C1A7416120EC768
:1057D300126516AA08FB1216FC8A0E8B0FAE0EAFCB
:1057E3000FEE4F60607414120EC712584FE8F0A307
:1057F300E912313EE50AF085080C85090D750E00A6
:10580300780C120B8E123528121E347403120BA55A
:105813007412120EC71209D4AC10AD11A90BEEFA13
:10582300EFFB12186A7402120BA5E9F50C7016E56A
:105833000A24F960031470061235AFD2E5F0EEFACC
:10584300EFFB121750A90C7F0A0208C1125EF41273
:1058530045CA2274F61206AC74F7120C3EEAFEEB4C
:10586300FF7801EE242F12465B600278051245C5CE
:10587300E812313B74041258AF121FCCEE242C12E1
:105883003109242E1258BC120B927402120C1E7989
:10589300031A1AEFFB12186A7402120BA5E9F50832
:1058A3007007EEFAEFFB121750025E18F0EE242396
:1058B300FCE43FFDAA18AB1922F582E43FF58312FD
:1058C3003253124DD204F078082274F21206AC8AD5
:1058D300088B09ECFEEDFF8A828B837405F0EE24BE
:1058E3003212465B8A828B83A3A3F0EA2403F50A70
:1058F300E43509F50B850A82F5831257A7125AABD3
:10590300120EB0E50C1243EA350DF583120E981210
:105913005AB5AA0CAB0D121FCC850A82850B8312D4
:105923005EECFAA3E0FB88828983A3A3A31252E966
:10593300EE242F12465BC0E0125ACAD0E0125B0974
:105943002415F582E438F583E4125B09125ABDE4A9
:10595300125B14850A82850B83E02416FAA3E034D4
:1059630000FB1218828E828F83A3A3A3A3A3A3A3F6
:10597300E0C0E0850A82850B83125AEE240DF5827E
:10598300E438F583D0E0125AF8FAA3E0FB850A82E3
:10599300850B83125AE1E8240BFCE439FD8A828BE0
:1059A30083E08C828D83F0A3E4125B21E0F50B8C02
:1059B300828D83A3E0450B125AFFA3E0FCA30A0ADE
:1059C300AB83A2E7E433C0E0E8240FF582E439F5C2
:1059D30083D0E0F074075C6004780180027800757E
:1059E300F00374075CA428F8EA28FAE43BFBE50813
:1059F3002405F8E43509F98A828B83123253125B4A
:105A0300218508828509831252E988828983E0F51A
:105A13000A540725E0FCE50AC4540F5407F50A7538
:105A23000B007403780A120D21EC250AF8EA28F812
:105A3300E43BF9850882850983A3A3A3A3A3A3A3B6
:105A4300A3A3E8F0A3E9124DCEFA8E828F83A3A31A
:105A5300E02AFAA3E03400FBC3EA98EB9940308EC6
:105A6300828F83A3A3E0F8850882850983A3A3A378
:105A7300A3A3A3A3A3A3E0FA8E828F83A3A3A3A3C9
:105A8300E0C39A28850882850983A3A3A380108590
:105A93000882850983A3A3A3A3A3A3A3124530A3C9
:105AA300A3A3A3A3F0023A44EE2425F582E43FF531
:105AB3008322EE2413FCE43FFD22125AC122240E5A
:105AC300F582E438F58322125ACE22E82410F582B7
:105AD300E439F58322A3A3A3A3A3A3A3A3A3125AE5
:105AE300E522E0F8A3E0F922900654125AF222E0EC
:105AF300F8A3E0C822125D0DA3A3E022125B0322E8
:105B0300F08A828B8322F0850A82850B83125AF2F4
:105B130022F0125B1922EE2408FCE43FFD22125B03
:105B230003A3AA82AB832274F51206AC8C088D09F9
